{
  "contractName": "Coupoken",
  "abi": [
    {
      "inputs": [],
      "payable": false,
      "stateMutability": "nonpayable",
      "type": "constructor"
    },
    {
      "anonymous": false,
      "inputs": [
        {
          "indexed": true,
          "internalType": "address",
          "name": "owner",
          "type": "address"
        },
        {
          "indexed": true,
          "internalType": "address",
          "name": "approved",
          "type": "address"
        },
        {
          "indexed": true,
          "internalType": "uint256",
          "name": "tokenId",
          "type": "uint256"
        }
      ],
      "name": "Approval",
      "type": "event"
    },
    {
      "anonymous": false,
      "inputs": [
        {
          "indexed": true,
          "internalType": "address",
          "name": "owner",
          "type": "address"
        },
        {
          "indexed": true,
          "internalType": "address",
          "name": "operator",
          "type": "address"
        },
        {
          "indexed": false,
          "internalType": "bool",
          "name": "approved",
          "type": "bool"
        }
      ],
      "name": "ApprovalForAll",
      "type": "event"
    },
    {
      "anonymous": false,
      "inputs": [],
      "name": "NotPausable",
      "type": "event"
    },
    {
      "anonymous": false,
      "inputs": [
        {
          "indexed": true,
          "internalType": "address",
          "name": "previousOwner",
          "type": "address"
        },
        {
          "indexed": true,
          "internalType": "address",
          "name": "newOwner",
          "type": "address"
        }
      ],
      "name": "OwnershipTransferred",
      "type": "event"
    },
    {
      "anonymous": false,
      "inputs": [],
      "name": "Pause",
      "type": "event"
    },
    {
      "anonymous": false,
      "inputs": [
        {
          "indexed": true,
          "internalType": "address",
          "name": "from",
          "type": "address"
        },
        {
          "indexed": true,
          "internalType": "address",
          "name": "to",
          "type": "address"
        },
        {
          "indexed": true,
          "internalType": "uint256",
          "name": "tokenId",
          "type": "uint256"
        }
      ],
      "name": "Transfer",
      "type": "event"
    },
    {
      "anonymous": false,
      "inputs": [],
      "name": "Unpause",
      "type": "event"
    },
    {
      "constant": true,
      "inputs": [
        {
          "internalType": "address",
          "name": "",
          "type": "address"
        }
      ],
      "name": "addressToMerchant",
      "outputs": [
        {
          "internalType": "uint256",
          "name": "createdAt",
          "type": "uint256"
        },
        {
          "internalType": "string",
          "name": "name",
          "type": "string"
        },
        {
          "internalType": "string",
          "name": "category",
          "type": "string"
        },
        {
          "internalType": "string",
          "name": "websiteUrl",
          "type": "string"
        },
        {
          "internalType": "bool",
          "name": "enabled",
          "type": "bool"
        },
        {
          "internalType": "string",
          "name": "merchantURI",
          "type": "string"
        }
      ],
      "payable": false,
      "stateMutability": "view",
      "type": "function"
    },
    {
      "constant": false,
      "inputs": [
        {
          "internalType": "address",
          "name": "to",
          "type": "address"
        },
        {
          "internalType": "uint256",
          "name": "tokenId",
          "type": "uint256"
        }
      ],
      "name": "approve",
      "outputs": [],
      "payable": false,
      "stateMutability": "nonpayable",
      "type": "function"
    },
    {
      "constant": true,
      "inputs": [
        {
          "internalType": "address",
          "name": "owner",
          "type": "address"
        }
      ],
      "name": "balanceOf",
      "outputs": [
        {
          "internalType": "uint256",
          "name": "",
          "type": "uint256"
        }
      ],
      "payable": false,
      "stateMutability": "view",
      "type": "function"
    },
    {
      "constant": true,
      "inputs": [],
      "name": "baseURI",
      "outputs": [
        {
          "internalType": "string",
          "name": "",
          "type": "string"
        }
      ],
      "payable": false,
      "stateMutability": "view",
      "type": "function"
    },
    {
      "constant": true,
      "inputs": [],
      "name": "canPause",
      "outputs": [
        {
          "internalType": "bool",
          "name": "",
          "type": "bool"
        }
      ],
      "payable": false,
      "stateMutability": "view",
      "type": "function"
    },
    {
      "constant": true,
      "inputs": [
        {
          "internalType": "uint256",
          "name": "tokenId",
          "type": "uint256"
        }
      ],
      "name": "getApproved",
      "outputs": [
        {
          "internalType": "address",
          "name": "",
          "type": "address"
        }
      ],
      "payable": false,
      "stateMutability": "view",
      "type": "function"
    },
    {
      "constant": true,
      "inputs": [
        {
          "internalType": "address",
          "name": "owner",
          "type": "address"
        },
        {
          "internalType": "address",
          "name": "operator",
          "type": "address"
        }
      ],
      "name": "isApprovedForAll",
      "outputs": [
        {
          "internalType": "bool",
          "name": "",
          "type": "bool"
        }
      ],
      "payable": false,
      "stateMutability": "view",
      "type": "function"
    },
    {
      "constant": true,
      "inputs": [],
      "name": "isOwner",
      "outputs": [
        {
          "internalType": "bool",
          "name": "",
          "type": "bool"
        }
      ],
      "payable": false,
      "stateMutability": "view",
      "type": "function"
    },
    {
      "constant": true,
      "inputs": [
        {
          "internalType": "uint256",
          "name": "",
          "type": "uint256"
        }
      ],
      "name": "merchantList",
      "outputs": [
        {
          "internalType": "address",
          "name": "",
          "type": "address"
        }
      ],
      "payable": false,
      "stateMutability": "view",
      "type": "function"
    },
    {
      "constant": true,
      "inputs": [],
      "name": "name",
      "outputs": [
        {
          "internalType": "string",
          "name": "",
          "type": "string"
        }
      ],
      "payable": false,
      "stateMutability": "view",
      "type": "function"
    },
    {
      "constant": false,
      "inputs": [],
      "name": "notPausable",
      "outputs": [],
      "payable": false,
      "stateMutability": "nonpayable",
      "type": "function"
    },
    {
      "constant": true,
      "inputs": [],
      "name": "owner",
      "outputs": [
        {
          "internalType": "address",
          "name": "",
          "type": "address"
        }
      ],
      "payable": false,
      "stateMutability": "view",
      "type": "function"
    },
    {
      "constant": true,
      "inputs": [
        {
          "internalType": "uint256",
          "name": "tokenId",
          "type": "uint256"
        }
      ],
      "name": "ownerOf",
      "outputs": [
        {
          "internalType": "address",
          "name": "",
          "type": "address"
        }
      ],
      "payable": false,
      "stateMutability": "view",
      "type": "function"
    },
    {
      "constant": false,
      "inputs": [],
      "name": "pause",
      "outputs": [],
      "payable": false,
      "stateMutability": "nonpayable",
      "type": "function"
    },
    {
      "constant": true,
      "inputs": [],
      "name": "paused",
      "outputs": [
        {
          "internalType": "bool",
          "name": "",
          "type": "bool"
        }
      ],
      "payable": false,
      "stateMutability": "view",
      "type": "function"
    },
    {
      "constant": false,
      "inputs": [],
      "name": "renounceOwnership",
      "outputs": [],
      "payable": false,
      "stateMutability": "nonpayable",
      "type": "function"
    },
    {
      "constant": false,
      "inputs": [
        {
          "internalType": "address",
          "name": "from",
          "type": "address"
        },
        {
          "internalType": "address",
          "name": "to",
          "type": "address"
        },
        {
          "internalType": "uint256",
          "name": "tokenId",
          "type": "uint256"
        }
      ],
      "name": "safeTransferFrom",
      "outputs": [],
      "payable": false,
      "stateMutability": "nonpayable",
      "type": "function"
    },
    {
      "constant": false,
      "inputs": [
        {
          "internalType": "address",
          "name": "from",
          "type": "address"
        },
        {
          "internalType": "address",
          "name": "to",
          "type": "address"
        },
        {
          "internalType": "uint256",
          "name": "tokenId",
          "type": "uint256"
        },
        {
          "internalType": "bytes",
          "name": "_data",
          "type": "bytes"
        }
      ],
      "name": "safeTransferFrom",
      "outputs": [],
      "payable": false,
      "stateMutability": "nonpayable",
      "type": "function"
    },
    {
      "constant": false,
      "inputs": [
        {
          "internalType": "address",
          "name": "to",
          "type": "address"
        },
        {
          "internalType": "bool",
          "name": "approved",
          "type": "bool"
        }
      ],
      "name": "setApprovalForAll",
      "outputs": [],
      "payable": false,
      "stateMutability": "nonpayable",
      "type": "function"
    },
    {
      "constant": true,
      "inputs": [
        {
          "internalType": "bytes4",
          "name": "interfaceId",
          "type": "bytes4"
        }
      ],
      "name": "supportsInterface",
      "outputs": [
        {
          "internalType": "bool",
          "name": "",
          "type": "bool"
        }
      ],
      "payable": false,
      "stateMutability": "view",
      "type": "function"
    },
    {
      "constant": true,
      "inputs": [],
      "name": "symbol",
      "outputs": [
        {
          "internalType": "string",
          "name": "",
          "type": "string"
        }
      ],
      "payable": false,
      "stateMutability": "view",
      "type": "function"
    },
    {
      "constant": true,
      "inputs": [
        {
          "internalType": "uint256",
          "name": "index",
          "type": "uint256"
        }
      ],
      "name": "tokenByIndex",
      "outputs": [
        {
          "internalType": "uint256",
          "name": "",
          "type": "uint256"
        }
      ],
      "payable": false,
      "stateMutability": "view",
      "type": "function"
    },
    {
      "constant": true,
      "inputs": [
        {
          "internalType": "uint256",
          "name": "",
          "type": "uint256"
        }
      ],
      "name": "tokenIdToCouponInfo",
      "outputs": [
        {
          "internalType": "uint256",
          "name": "discountSize",
          "type": "uint256"
        },
        {
          "internalType": "uint256",
          "name": "price",
          "type": "uint256"
        },
        {
          "internalType": "uint256",
          "name": "deadline",
          "type": "uint256"
        },
        {
          "internalType": "uint256",
          "name": "createdAt",
          "type": "uint256"
        },
        {
          "internalType": "address",
          "name": "merchantAdr",
          "type": "address"
        },
        {
          "internalType": "bool",
          "name": "tradable",
          "type": "bool"
        },
        {
          "internalType": "string",
          "name": "category",
          "type": "string"
        }
      ],
      "payable": false,
      "stateMutability": "view",
      "type": "function"
    },
    {
      "constant": true,
      "inputs": [
        {
          "internalType": "address",
          "name": "owner",
          "type": "address"
        },
        {
          "internalType": "uint256",
          "name": "index",
          "type": "uint256"
        }
      ],
      "name": "tokenOfOwnerByIndex",
      "outputs": [
        {
          "internalType": "uint256",
          "name": "",
          "type": "uint256"
        }
      ],
      "payable": false,
      "stateMutability": "view",
      "type": "function"
    },
    {
      "constant": true,
      "inputs": [
        {
          "internalType": "uint256",
          "name": "tokenId",
          "type": "uint256"
        }
      ],
      "name": "tokenURI",
      "outputs": [
        {
          "internalType": "string",
          "name": "",
          "type": "string"
        }
      ],
      "payable": false,
      "stateMutability": "view",
      "type": "function"
    },
    {
      "constant": true,
      "inputs": [],
      "name": "totalSupply",
      "outputs": [
        {
          "internalType": "uint256",
          "name": "",
          "type": "uint256"
        }
      ],
      "payable": false,
      "stateMutability": "view",
      "type": "function"
    },
    {
      "constant": false,
      "inputs": [
        {
          "internalType": "address",
          "name": "from",
          "type": "address"
        },
        {
          "internalType": "address",
          "name": "to",
          "type": "address"
        },
        {
          "internalType": "uint256",
          "name": "tokenId",
          "type": "uint256"
        }
      ],
      "name": "transferFrom",
      "outputs": [],
      "payable": false,
      "stateMutability": "nonpayable",
      "type": "function"
    },
    {
      "constant": false,
      "inputs": [
        {
          "internalType": "address",
          "name": "newOwner",
          "type": "address"
        }
      ],
      "name": "transferOwnership",
      "outputs": [],
      "payable": false,
      "stateMutability": "nonpayable",
      "type": "function"
    },
    {
      "constant": false,
      "inputs": [],
      "name": "unpause",
      "outputs": [],
      "payable": false,
      "stateMutability": "nonpayable",
      "type": "function"
    },
    {
      "constant": true,
      "inputs": [],
      "name": "getMerchantList",
      "outputs": [
        {
          "internalType": "address[]",
          "name": "",
          "type": "address[]"
        }
      ],
      "payable": false,
      "stateMutability": "view",
      "type": "function"
    },
    {
      "constant": false,
      "inputs": [
        {
          "internalType": "string",
          "name": "_name",
          "type": "string"
        },
        {
          "internalType": "string",
          "name": "_category",
          "type": "string"
        },
        {
          "internalType": "string",
          "name": "_websiteUrl",
          "type": "string"
        },
        {
          "internalType": "string",
          "name": "_merchantURI",
          "type": "string"
        }
      ],
      "name": "createMerchant",
      "outputs": [],
      "payable": false,
      "stateMutability": "nonpayable",
      "type": "function"
    },
    {
      "constant": false,
      "inputs": [
        {
          "internalType": "uint256",
          "name": "_discountSize",
          "type": "uint256"
        },
        {
          "internalType": "uint256",
          "name": "_price",
          "type": "uint256"
        },
        {
          "internalType": "uint256",
          "name": "_deadline",
          "type": "uint256"
        },
        {
          "internalType": "uint256",
          "name": "_tokenId",
          "type": "uint256"
        },
        {
          "internalType": "string",
          "name": "_tokenURI",
          "type": "string"
        },
        {
          "internalType": "string",
          "name": "_category",
          "type": "string"
        }
      ],
      "name": "createCoupon",
      "outputs": [],
      "payable": false,
      "stateMutability": "nonpayable",
      "type": "function"
    },
    {
      "constant": false,
      "inputs": [
        {
          "internalType": "address",
          "name": "_target",
          "type": "address"
        },
        {
          "internalType": "uint256",
          "name": "_tokenId",
          "type": "uint256"
        }
      ],
      "name": "transferCoupon",
      "outputs": [],
      "payable": false,
      "stateMutability": "nonpayable",
      "type": "function"
    },
    {
      "constant": false,
      "inputs": [
        {
          "internalType": "uint256",
          "name": "_tokenId",
          "type": "uint256"
        },
        {
          "internalType": "bool",
          "name": "_tradable",
          "type": "bool"
        }
      ],
      "name": "toggleLockCoupon",
      "outputs": [],
      "payable": false,
      "stateMutability": "nonpayable",
      "type": "function"
    },
    {
      "constant": false,
      "inputs": [
        {
          "internalType": "uint256",
          "name": "_tokenId",
          "type": "uint256"
        },
        {
          "internalType": "uint256",
          "name": "_price",
          "type": "uint256"
        }
      ],
      "name": "setPriceCoupon",
      "outputs": [],
      "payable": false,
      "stateMutability": "nonpayable",
      "type": "function"
    },
    {
      "constant": false,
      "inputs": [
        {
          "internalType": "uint256",
          "name": "_tokenId",
          "type": "uint256"
        },
        {
          "internalType": "uint256",
          "name": "_deadline",
          "type": "uint256"
        }
      ],
      "name": "setDeadlineCoupon",
      "outputs": [],
      "payable": false,
      "stateMutability": "nonpayable",
      "type": "function"
    },
    {
      "constant": false,
      "inputs": [
        {
          "internalType": "address",
          "name": "_target",
          "type": "address"
        },
        {
          "internalType": "uint256",
          "name": "_tokenId",
          "type": "uint256"
        }
      ],
      "name": "claimBackCoupon",
      "outputs": [],
      "payable": false,
      "stateMutability": "nonpayable",
      "type": "function"
    },
    {
      "constant": true,
      "inputs": [
        {
          "internalType": "uint256",
          "name": "_tokenId",
          "type": "uint256"
        }
      ],
      "name": "getCouponInfo",
      "outputs": [
        {
          "internalType": "uint256",
          "name": "discountSize",
          "type": "uint256"
        },
        {
          "internalType": "uint256",
          "name": "price",
          "type": "uint256"
        },
        {
          "internalType": "uint256",
          "name": "deadline",
          "type": "uint256"
        },
        {
          "internalType": "uint256",
          "name": "createdAt",
          "type": "uint256"
        },
        {
          "internalType": "address",
          "name": "merchantAdr",
          "type": "address"
        },
        {
          "internalType": "bool",
          "name": "tradable",
          "type": "bool"
        },
        {
          "internalType": "string",
          "name": "_category",
          "type": "string"
        }
      ],
      "payable": false,
      "stateMutability": "view",
      "type": "function"
    },
    {
      "constant": true,
      "inputs": [
        {
          "internalType": "address",
          "name": "_merchantAdr",
          "type": "address"
        }
      ],
      "name": "getMerchantInfo",
      "outputs": [
        {
          "internalType": "uint256",
          "name": "createdAt",
          "type": "uint256"
        },
        {
          "internalType": "string",
          "name": "merchantName",
          "type": "string"
        },
        {
          "internalType": "string",
          "name": "category",
          "type": "string"
        },
        {
          "internalType": "string",
          "name": "websiteUrl",
          "type": "string"
        },
        {
          "internalType": "bool",
          "name": "enabled",
          "type": "bool"
        },
        {
          "internalType": "string",
          "name": "merchantURI",
          "type": "string"
        }
      ],
      "payable": false,
      "stateMutability": "view",
      "type": "function"
    },
    {
      "constant": false,
      "inputs": [
        {
          "internalType": "uint256",
          "name": "_tokenId",
          "type": "uint256"
        }
      ],
      "name": "buyCoupon",
      "outputs": [],
      "payable": true,
      "stateMutability": "payable",
      "type": "function"
    },
    {
      "constant": true,
      "inputs": [
        {
          "internalType": "address",
          "name": "_owner",
          "type": "address"
        }
      ],
      "name": "tokensOfOwner",
      "outputs": [
        {
          "internalType": "uint256[]",
          "name": "ownerTokens",
          "type": "uint256[]"
        }
      ],
      "payable": false,
      "stateMutability": "view",
      "type": "function"
    },
    {
      "constant": true,
      "inputs": [
        {
          "internalType": "string",
          "name": "_category",
          "type": "string"
        }
      ],
      "name": "tokensOfCategory",
      "outputs": [
        {
          "internalType": "uint256[]",
          "name": "ownerTokens",
          "type": "uint256[]"
        }
      ],
      "payable": false,
      "stateMutability": "view",
      "type": "function"
    },
    {
      "constant": true,
      "inputs": [
        {
          "internalType": "address",
          "name": "_merchant",
          "type": "address"
        }
      ],
      "name": "tokensOfMerchant",
      "outputs": [
        {
          "internalType": "uint256[]",
          "name": "merchantTokens",
          "type": "uint256[]"
        }
      ],
      "payable": false,
      "stateMutability": "view",
      "type": "function"
    }
  ],
  "bytecode": "0x60806040526000600d60146101000a81548160ff0219169083151502179055506001600d60156101000a81548160ff0219169083151502179055503480156200004757600080fd5b506040518060400160405280600881526020017f436f75706f6b656e0000000000000000000000000000000000000000000000008152506040518060400160405280600381526020017f43504b00000000000000000000000000000000000000000000000000000000008152508181620000ce6301ffc9a760e01b6200020360201b60201c565b620000e66380ac58cd60e01b6200020360201b60201c565b620000fe63780e9d6360e01b6200020360201b60201c565b81600990805190602001906200011692919062000314565b5080600a90805190602001906200012f92919062000314565b5062000148635b5e139f60e01b6200020360201b60201c565b5050505060006200015e6200030c60201b60201c565b905080600d60006101000a81548173ffffffffffffffffffffffffffffffffffffffff021916908373ffffffffffffffffffffffffffffffffffffffff1602179055508073ffffffffffffffffffffffffffffffffffffffff16600073ffffffffffffffffffffffffffffffffffffffff167f8be0079c531659141344cd1fd0a4f28419497f9722a3daafe3b4186f6b6457e060405160405180910390a350620003c3565b63ffffffff60e01b817bffffffffffffffffffffffffffffffffffffffffffffffffffffffff19161415620002a0576040517f08c379a000000000000000000000000000000000000000000000000000000000815260040180806020018281038252601c8152602001807f4552433136353a20696e76616c696420696e746572666163652069640000000081525060200191505060405180910390fd5b6001600080837bffffffffffffffffffffffffffffffffffffffffffffffffffffffff19167bffffffffffffffffffffffffffffffffffffffffffffffffffffffff1916815260200190815260200160002060006101000a81548160ff02191690831515021790555050565b600033905090565b828054600181600116156101000203166002900490600052602060002090601f016020900481019282601f106200035757805160ff191683800117855562000388565b8280016001018555821562000388579182015b82811115620003875782518255916020019190600101906200036a565b5b5090506200039791906200039b565b5090565b620003c091905b80821115620003bc576000816000905550600101620003a2565b5090565b90565b615edc80620003d36000396000f3fe60806040526004361061025c5760003560e01c8063715018a611610144578063c7557757116100b6578063eb99c9681161007a578063eb99c968146114d8578063f2dbe88d1461151f578063f2fde38b1461157a578063f3c7b8fc146115cb578063f71c3019146116ce578063fce17375146117dc5761025c565b8063c7557757146110f6578063c795fd971461113b578063c87b56dd146112c0578063d2088fb914611374578063e985e9c51461144f5761025c565b80638f32d59b116101085780638f32d59b14610d5f57806395d89b4114610d8e5780639a93aec014610e1e5780639b8909a514610e79578063a22cb46514610f87578063b88d4fde14610fe45761025c565b8063715018a614610c065780638456cb5914610c1d5780638462151c14610c3457806386d3ebc714610cda5780638da5cb5b14610d085761025c565b8063323be1c5116101dd578063530a26f3116101a1578063530a26f31461097c5780635c975abb14610a2257806362b3642f14610a515780636352211e14610a965780636c0360eb14610b1157806370a0823114610ba15761025c565b8063323be1c5146108555780633f4ba83a1461088457806342842e0e1461089b5780634be8b05e146109165780634f6ccce71461092d5761025c565b806318160ddd1161022457806318160ddd146106595780631b795d561461068457806323b872dd146106ff5780632f745c591461077a578063313beb55146107e95761025c565b806301ffc9a71461026157806306fdde03146102d3578063081812fc14610363578063095ea7b3146103de5780630e733ef114610439575b600080fd5b34801561026d57600080fd5b506102b96004803603602081101561028457600080fd5b8101908080357bffffffffffffffffffffffffffffffffffffffffffffffffffffffff191690602001909291905050506119fc565b604051808215151515815260200191505060405180910390f35b3480156102df57600080fd5b506102e8611a63565b6040518080602001828103825283818151815260200191508051906020019080838360005b8381101561032857808201518184015260208101905061030d565b50505050905090810190601f1680156103555780820380516001836020036101000a031916815260200191505b509250505060405180910390f35b34801561036f57600080fd5b5061039c6004803603602081101561038657600080fd5b8101908080359060200190929190505050611b05565b604051808273ffffffffffffffffffffffffffffffffffffffff1673ffffffffffffffffffffffffffffffffffffffff16815260200191505060405180910390f35b3480156103ea57600080fd5b506104376004803603604081101561040157600080fd5b81019080803573ffffffffffffffffffffffffffffffffffffffff16906020019092919080359060200190929190505050611ba0565b005b34801561044557600080fd5b506104886004803603602081101561045c57600080fd5b81019080803573ffffffffffffffffffffffffffffffffffffffff169060200190929190505050611d87565b60405180878152602001806020018060200180602001861515151581526020018060200185810385528a818151815260200191508051906020019080838360005b838110156104e45780820151818401526020810190506104c9565b50505050905090810190601f1680156105115780820380516001836020036101000a031916815260200191505b50858103845289818151815260200191508051906020019080838360005b8381101561054a57808201518184015260208101905061052f565b50505050905090810190601f1680156105775780820380516001836020036101000a031916815260200191505b50858103835288818151815260200191508051906020019080838360005b838110156105b0578082015181840152602081019050610595565b50505050905090810190601f1680156105dd5780820380516001836020036101000a031916815260200191505b50858103825286818151815260200191508051906020019080838360005b838110156106165780820151818401526020810190506105fb565b50505050905090810190601f1680156106435780820380516001836020036101000a031916815260200191505b509a505050505050505050505060405180910390f35b34801561066557600080fd5b5061066e6121b2565b6040518082815260200191505060405180910390f35b34801561069057600080fd5b506106bd600480360360208110156106a757600080fd5b81019080803590602001909291905050506121bf565b604051808273ffffffffffffffffffffffffffffffffffffffff1673ffffffffffffffffffffffffffffffffffffffff16815260200191505060405180910390f35b34801561070b57600080fd5b506107786004803603606081101561072257600080fd5b81019080803573ffffffffffffffffffffffffffffffffffffffff169060200190929190803573ffffffffffffffffffffffffffffffffffffffff169060200190929190803590602001909291905050506121fb565b005b34801561078657600080fd5b506107d36004803603604081101561079d57600080fd5b81019080803573ffffffffffffffffffffffffffffffffffffffff16906020019092919080359060200190929190505050612271565b6040518082815260200191505060405180910390f35b3480156107f557600080fd5b506107fe612330565b6040518080602001828103825283818151815260200191508051906020019060200280838360005b83811015610841578082015181840152602081019050610826565b505050509050019250505060405180910390f35b34801561086157600080fd5b5061086a6123be565b604051808215151515815260200191505060405180910390f35b34801561089057600080fd5b506108996123d1565b005b3480156108a757600080fd5b50610914600480360360608110156108be57600080fd5b81019080803573ffffffffffffffffffffffffffffffffffffffff169060200190929190803573ffffffffffffffffffffffffffffffffffffffff169060200190929190803590602001909291905050506124cd565b005b34801561092257600080fd5b5061092b6124ed565b005b34801561093957600080fd5b506109666004803603602081101561095057600080fd5b81019080803590602001909291905050506125cb565b6040518082815260200191505060405180910390f35b34801561098857600080fd5b506109cb6004803603602081101561099f57600080fd5b81019080803573ffffffffffffffffffffffffffffffffffffffff16906020019092919050505061264b565b6040518080602001828103825283818151815260200191508051906020019060200280838360005b83811015610a0e5780820151818401526020810190506109f3565b505050509050019250505060405180910390f35b348015610a2e57600080fd5b50610a376127d5565b604051808215151515815260200191505060405180910390f35b348015610a5d57600080fd5b50610a9460048036036040811015610a7457600080fd5b8101908080359060200190929190803590602001909291905050506127e8565b005b348015610aa257600080fd5b50610acf60048036036020811015610ab957600080fd5b81019080803590602001909291905050506128b2565b604051808273ffffffffffffffffffffffffffffffffffffffff1673ffffffffffffffffffffffffffffffffffffffff16815260200191505060405180910390f35b348015610b1d57600080fd5b50610b2661297a565b6040518080602001828103825283818151815260200191508051906020019080838360005b83811015610b66578082015181840152602081019050610b4b565b50505050905090810190601f168015610b935780820380516001836020036101000a031916815260200191505b509250505060405180910390f35b348015610bad57600080fd5b50610bf060048036036020811015610bc457600080fd5b81019080803573ffffffffffffffffffffffffffffffffffffffff169060200190929190505050612a1c565b6040518082815260200191505060405180910390f35b348015610c1257600080fd5b50610c1b612af1565b005b348015610c2957600080fd5b50610c32612c2c565b005b348015610c4057600080fd5b50610c8360048036036020811015610c5757600080fd5b81019080803573ffffffffffffffffffffffffffffffffffffffff169060200190929190505050612d66565b6040518080602001828103825283818151815260200191508051906020019060200280838360005b83811015610cc6578082015181840152602081019050610cab565b505050509050019250505060405180910390f35b610d0660048036036020811015610cf057600080fd5b8101908080359060200190929190505050612e83565b005b348015610d1457600080fd5b50610d1d61303d565b604051808273ffffffffffffffffffffffffffffffffffffffff1673ffffffffffffffffffffffffffffffffffffffff16815260200191505060405180910390f35b348015610d6b57600080fd5b50610d74613067565b604051808215151515815260200191505060405180910390f35b348015610d9a57600080fd5b50610da36130c6565b6040518080602001828103825283818151815260200191508051906020019080838360005b83811015610de3578082015181840152602081019050610dc8565b50505050905090810190601f168015610e105780820380516001836020036101000a031916815260200191505b509250505060405180910390f35b348015610e2a57600080fd5b50610e7760048036036040811015610e4157600080fd5b81019080803573ffffffffffffffffffffffffffffffffffffffff16906020019092919080359060200190929190505050613168565b005b348015610e8557600080fd5b50610eb260048036036020811015610e9c57600080fd5b8101908080359060200190929190505050613279565b604051808881526020018781526020018681526020018581526020018473ffffffffffffffffffffffffffffffffffffffff1673ffffffffffffffffffffffffffffffffffffffff1681526020018315151515815260200180602001828103825283818151815260200191508051906020019080838360005b83811015610f46578082015181840152602081019050610f2b565b50505050905090810190601f168015610f735780820380516001836020036101000a031916815260200191505b509850505050505050505060405180910390f35b348015610f9357600080fd5b50610fe260048036036040811015610faa57600080fd5b81019080803573ffffffffffffffffffffffffffffffffffffffff169060200190929190803515159060200190929190505050613406565b005b348015610ff057600080fd5b506110f46004803603608081101561100757600080fd5b81019080803573ffffffffffffffffffffffffffffffffffffffff169060200190929190803573ffffffffffffffffffffffffffffffffffffffff169060200190929190803590602001909291908035906020019064010000000081111561106e57600080fd5b82018360208201111561108057600080fd5b803590602001918460018302840111640100000000831117156110a257600080fd5b91908080601f016020809104026020016040519081016040528093929190818152602001838380828437600081840152601f19601f8201169050808301925050505050505091929192905050506135be565b005b34801561110257600080fd5b506111396004803603604081101561111957600080fd5b810190808035906020019092919080359060200190929190505050613636565b005b34801561114757600080fd5b506112be6004803603608081101561115e57600080fd5b810190808035906020019064010000000081111561117b57600080fd5b82018360208201111561118d57600080fd5b803590602001918460018302840111640100000000831117156111af57600080fd5b9091929391929390803590602001906401000000008111156111d057600080fd5b8201836020820111156111e257600080fd5b8035906020019184600183028401116401000000008311171561120457600080fd5b90919293919293908035906020019064010000000081111561122557600080fd5b82018360208201111561123757600080fd5b8035906020019184600183028401116401000000008311171561125957600080fd5b90919293919293908035906020019064010000000081111561127a57600080fd5b82018360208201111561128c57600080fd5b803590602001918460018302840111640100000000831117156112ae57600080fd5b9091929391929390505050613704565b005b3480156112cc57600080fd5b506112f9600480360360208110156112e357600080fd5b8101908080359060200190929190505050613aaf565b6040518080602001828103825283818151815260200191508051906020019080838360005b8381101561133957808201518184015260208101905061131e565b50505050905090810190601f1680156113665780820380516001836020036101000a031916815260200191505b509250505060405180910390f35b34801561138057600080fd5b506113f86004803603602081101561139757600080fd5b81019080803590602001906401000000008111156113b457600080fd5b8201836020820111156113c657600080fd5b803590602001918460018302840111640100000000831117156113e857600080fd5b9091929391929390505050613cb1565b6040518080602001828103825283818151815260200191508051906020019060200280838360005b8381101561143b578082015181840152602081019050611420565b505050509050019250505060405180910390f35b34801561145b57600080fd5b506114be6004803603604081101561147257600080fd5b81019080803573ffffffffffffffffffffffffffffffffffffffff169060200190929190803573ffffffffffffffffffffffffffffffffffffffff169060200190929190505050613e4f565b604051808215151515815260200191505060405180910390f35b3480156114e457600080fd5b5061151d600480360360408110156114fb57600080fd5b8101908080359060200190929190803515159060200190929190505050613ee3565b005b34801561152b57600080fd5b506115786004803603604081101561154257600080fd5b81019080803573ffffffffffffffffffffffffffffffffffffffff16906020019092919080359060200190929190505050613fc0565b005b34801561158657600080fd5b506115c96004803603602081101561159d57600080fd5b81019080803573ffffffffffffffffffffffffffffffffffffffff16906020019092919050505061412f565b005b3480156115d757600080fd5b506116cc600480360360c08110156115ee57600080fd5b81019080803590602001909291908035906020019092919080359060200190929190803590602001909291908035906020019064010000000081111561163357600080fd5b82018360208201111561164557600080fd5b8035906020019184600183028401116401000000008311171561166757600080fd5b90919293919293908035906020019064010000000081111561168857600080fd5b82018360208201111561169a57600080fd5b803590602001918460018302840111640100000000831117156116bc57600080fd5b90919293919293905050506141b5565b005b3480156116da57600080fd5b50611707600480360360208110156116f157600080fd5b810190808035906020019092919050505061451b565b604051808881526020018781526020018681526020018581526020018473ffffffffffffffffffffffffffffffffffffffff1673ffffffffffffffffffffffffffffffffffffffff1681526020018315151515815260200180602001828103825283818151815260200191508051906020019080838360005b8381101561179b578082015181840152602081019050611780565b50505050905090810190601f1680156117c85780820380516001836020036101000a031916815260200191505b509850505050505050505060405180910390f35b3480156117e857600080fd5b5061182b600480360360208110156117ff57600080fd5b81019080803573ffffffffffffffffffffffffffffffffffffffff169060200190929190505050614622565b60405180878152602001806020018060200180602001861515151581526020018060200185810385528a818151815260200191508051906020019080838360005b8381101561188757808201518184015260208101905061186c565b50505050905090810190601f1680156118b45780820380516001836020036101000a031916815260200191505b50858103845289818151815260200191508051906020019080838360005b838110156118ed5780820151818401526020810190506118d2565b50505050905090810190601f16801561191a5780820380516001836020036101000a031916815260200191505b50858103835288818151815260200191508051906020019080838360005b83811015611953578082015181840152602081019050611938565b50505050905090810190601f1680156119805780820380516001836020036101000a031916815260200191505b50858103825286818151815260200191508051906020019080838360005b838110156119b957808201518184015260208101905061199e565b50505050905090810190601f1680156119e65780820380516001836020036101000a031916815260200191505b509a505050505050505050505060405180910390f35b6000806000837bffffffffffffffffffffffffffffffffffffffffffffffffffffffff19167bffffffffffffffffffffffffffffffffffffffffffffffffffffffff1916815260200190815260200160002060009054906101000a900460ff169050919050565b606060098054600181600116156101000203166002900480601f016020809104026020016040519081016040528092919081815260200182805460018160011615610100020316600290048015611afb5780601f10611ad057610100808354040283529160200191611afb565b820191906000526020600020905b815481529060010190602001808311611ade57829003601f168201915b5050505050905090565b6000611b10826148cb565b611b65576040517f08c379a000000000000000000000000000000000000000000000000000000000815260040180806020018281038252602c815260200180615d7a602c913960400191505060405180910390fd5b6002600083815260200190815260200160002060009054906101000a900473ffffffffffffffffffffffffffffffffffffffff169050919050565b6000611bab826128b2565b90508073ffffffffffffffffffffffffffffffffffffffff168373ffffffffffffffffffffffffffffffffffffffff161415611c32576040517f08c379a0000000000000000000000000000000000000000000000000000000008152600401808060200182810382526021815260200180615e2a6021913960400191505060405180910390fd5b8073ffffffffffffffffffffffffffffffffffffffff16611c5161493d565b73ffffffffffffffffffffffffffffffffffffffff161480611c805750611c7f81611c7a61493d565b613e4f565b5b611cd5576040517f08c379a0000000000000000000000000000000000000000000000000000000008152600401808060200182810382526038815260200180615cef6038913960400191505060405180910390fd5b826002600084815260200190815260200160002060006101000a81548173ffffffffffffffffffffffffffffffffffffffff021916908373ffffffffffffffffffffffffffffffffffffffff160217905550818373ffffffffffffffffffffffffffffffffffffffff168273ffffffffffffffffffffffffffffffffffffffff167f8c5be1e5ebec7d5bd14f71427d1e84f3dd0314c0f7b2291e5b200ac8c7c3b92560405160405180910390a4505050565b6000606080606060006060600f60008873ffffffffffffffffffffffffffffffffffffffff1673ffffffffffffffffffffffffffffffffffffffff16815260200190815260200160002060000154600f60008973ffffffffffffffffffffffffffffffffffffffff1673ffffffffffffffffffffffffffffffffffffffff168152602001908152602001600020600101600f60008a73ffffffffffffffffffffffffffffffffffffffff1673ffffffffffffffffffffffffffffffffffffffff168152602001908152602001600020600201600f60008b73ffffffffffffffffffffffffffffffffffffffff1673ffffffffffffffffffffffffffffffffffffffff168152602001908152602001600020600301600f60008c73ffffffffffffffffffffffffffffffffffffffff1673ffffffffffffffffffffffffffffffffffffffff16815260200190815260200160002060040160009054906101000a900460ff16600f60008d73ffffffffffffffffffffffffffffffffffffffff1673ffffffffffffffffffffffffffffffffffffffff168152602001908152602001600020600501848054600181600116156101000203166002900480601f016020809104026020016040519081016040528092919081815260200182805460018160011615610100020316600290048015611fc25780601f10611f9757610100808354040283529160200191611fc2565b820191906000526020600020905b815481529060010190602001808311611fa557829003601f168201915b50505050509450838054600181600116156101000203166002900480601f01602080910402602001604051908101604052809291908181526020018280546001816001161561010002031660029004801561205e5780601f106120335761010080835404028352916020019161205e565b820191906000526020600020905b81548152906001019060200180831161204157829003601f168201915b50505050509350828054600181600116156101000203166002900480601f0160208091040260200160405190810160405280929190818152602001828054600181600116156101000203166002900480156120fa5780601f106120cf576101008083540402835291602001916120fa565b820191906000526020600020905b8154815290600101906020018083116120dd57829003601f168201915b50505050509250808054600181600116156101000203166002900480601f0160208091040260200160405190810160405280929190818152602001828054600181600116156101000203166002900480156121965780601f1061216b57610100808354040283529160200191612196565b820191906000526020600020905b81548152906001019060200180831161217957829003601f168201915b5050505050905095509550955095509550955091939550919395565b6000600780549050905090565b601281815481106121cc57fe5b906000526020600020016000915054906101000a900473ffffffffffffffffffffffffffffffffffffffff1681565b61220c61220661493d565b82614945565b612261576040517f08c379a0000000000000000000000000000000000000000000000000000000008152600401808060200182810382526031815260200180615e4b6031913960400191505060405180910390fd5b61226c838383614a39565b505050565b600061227c83612a1c565b82106122d3576040517f08c379a000000000000000000000000000000000000000000000000000000000815260040180806020018281038252602b815260200180615bf2602b913960400191505060405180910390fd5b600560008473ffffffffffffffffffffffffffffffffffffffff1673ffffffffffffffffffffffffffffffffffffffff168152602001908152602001600020828154811061231d57fe5b9060005260206000200154905092915050565b606060128054806020026020016040519081016040528092919081815260200182805480156123b457602002820191906000526020600020905b8160009054906101000a900473ffffffffffffffffffffffffffffffffffffffff1673ffffffffffffffffffffffffffffffffffffffff168152602001906001019080831161236a575b5050505050905090565b600d60159054906101000a900460ff1681565b6123d9613067565b61244b576040517f08c379a00000000000000000000000000000000000000000000000000000000081526004018080602001828103825260208152602001807f4f776e61626c653a2063616c6c6572206973206e6f7420746865206f776e657281525060200191505060405180910390fd5b600d60149054906101000a900460ff1661246457600080fd5b60011515600d60149054906101000a900460ff1615151461248457600080fd5b6000600d60146101000a81548160ff0219169083151502179055507f7805862f689e2f13df9f062ff482ad3ad112aca9e0847911ed832e158c525b3360405160405180910390a1565b6124e8838383604051806020016040528060008152506135be565b505050565b6124f5613067565b612567576040517f08c379a00000000000000000000000000000000000000000000000000000000081526004018080602001828103825260208152602001807f4f776e61626c653a2063616c6c6572206973206e6f7420746865206f776e657281525060200191505060405180910390fd5b6000600d60146101000a81548160ff0219169083151502179055506000600d60156101000a81548160ff0219169083151502179055507faff39f66825d4448497d384dee3f4a3adf00a622960add00806503ae4ccee01c60405160405180910390a1565b60006125d56121b2565b821061262c576040517f08c379a000000000000000000000000000000000000000000000000000000000815260040180806020018281038252602c815260200180615e7c602c913960400191505060405180910390fd5b6007828154811061263957fe5b90600052602060002001549050919050565b6060600061265883612a1c565b9050600081141561269c5760006040519080825280602002602001820160405280156126935781602001602082028038833980820191505090505b509150506127d0565b6060601060008573ffffffffffffffffffffffffffffffffffffffff1673ffffffffffffffffffffffffffffffffffffffff1681526020019081526020016000205460405190808252806020026020018201604052801561270c5781602001602082028038833980820191505090505b50905060006127196121b2565b905060008090506000600190505b8281116127c7578673ffffffffffffffffffffffffffffffffffffffff16600e600083815260200190815260200160002060040160009054906101000a900473ffffffffffffffffffffffffffffffffffffffff1673ffffffffffffffffffffffffffffffffffffffff1614156127ba57808483815181106127a557fe5b60200260200101818152505081806001019250505b8080600101915050612727565b83955050505050505b919050565b600d60149054906101000a900460ff1681565b816127f2816128b2565b73ffffffffffffffffffffffffffffffffffffffff163373ffffffffffffffffffffffffffffffffffffffff1614612892576040517f08c379a00000000000000000000000000000000000000000000000000000000081526004018080602001828103825260158152602001807f796f75206d75737420626520746865206f776e6572000000000000000000000081525060200191505060405180910390fd5b81600e600085815260200190815260200160002060010181905550505050565b6000806001600084815260200190815260200160002060009054906101000a900473ffffffffffffffffffffffffffffffffffffffff169050600073ffffffffffffffffffffffffffffffffffffffff168173ffffffffffffffffffffffffffffffffffffffff161415612971576040517f08c379a0000000000000000000000000000000000000000000000000000000008152600401808060200182810382526029815260200180615d516029913960400191505060405180910390fd5b80915050919050565b6060600b8054600181600116156101000203166002900480601f016020809104026020016040519081016040528092919081815260200182805460018160011615610100020316600290048015612a125780601f106129e757610100808354040283529160200191612a12565b820191906000526020600020905b8154815290600101906020018083116129f557829003601f168201915b5050505050905090565b60008073ffffffffffffffffffffffffffffffffffffffff168273ffffffffffffffffffffffffffffffffffffffff161415612aa3576040517f08c379a000000000000000000000000000000000000000000000000000000000815260040180806020018281038252602a815260200180615d27602a913960400191505060405180910390fd5b612aea600360008473ffffffffffffffffffffffffffffffffffffffff1673ffffffffffffffffffffffffffffffffffffffff168152602001908152602001600020614a5d565b9050919050565b612af9613067565b612b6b576040517f08c379a00000000000000000000000000000000000000000000000000000000081526004018080602001828103825260208152602001807f4f776e61626c653a2063616c6c6572206973206e6f7420746865206f776e657281525060200191505060405180910390fd5b600073ffffffffffffffffffffffffffffffffffffffff16600d60009054906101000a900473ffffffffffffffffffffffffffffffffffffffff1673ffffffffffffffffffffffffffffffffffffffff167f8be0079c531659141344cd1fd0a4f28419497f9722a3daafe3b4186f6b6457e060405160405180910390a36000600d60006101000a81548173ffffffffffffffffffffffffffffffffffffffff021916908373ffffffffffffffffffffffffffffffffffffffff160217905550565b612c34613067565b612ca6576040517f08c379a00000000000000000000000000000000000000000000000000000000081526004018080602001828103825260208152602001807f4f776e61626c653a2063616c6c6572206973206e6f7420746865206f776e657281525060200191505060405180910390fd5b600d60149054906101000a900460ff161580612cf45750612cc561303d565b73ffffffffffffffffffffffffffffffffffffffff163373ffffffffffffffffffffffffffffffffffffffff16145b612cfd57600080fd5b60011515600d60159054906101000a900460ff16151514612d1d57600080fd5b6001600d60146101000a81548160ff0219169083151502179055507f6985a02210a168e66602d3235cb6db0e70f92b3ba4d376a33c0f3d9434bff62560405160405180910390a1565b60606000612d7383612a1c565b90506000811415612db7576000604051908082528060200260200182016040528015612dae5781602001602082028038833980820191505090505b50915050612e7e565b606081604051908082528060200260200182016040528015612de85781602001602082028038833980820191505090505b5090506000612df56121b2565b905060008090506000600190505b828111612e75578673ffffffffffffffffffffffffffffffffffffffff16612e2a826128b2565b73ffffffffffffffffffffffffffffffffffffffff161415612e685780848381518110612e5357fe5b60200260200101818152505081806001019250505b8080600101915050612e03565b83955050505050505b919050565b6000612e8e826128b2565b9050600e600083815260200190815260200160002060040160149054906101000a900460ff16612f26576040517f08c379a00000000000000000000000000000000000000000000000000000000081526004018080602001828103825260148152602001807f5472616461626c65206e6f7420656e61626c656400000000000000000000000081525060200191505060405180910390fd5b600e6000838152602001908152602001600020600101543414612f94576040517f08c379a000000000000000000000000000000000000000000000000000000000815260040180806020018281038252602a815260200180615c99602a913960400191505060405180910390fd5b612f9f813384614a39565b6000612faa82614a6b565b90508073ffffffffffffffffffffffffffffffffffffffff166108fc600e6000868152602001908152602001600020600101549081150290604051600060405180830381858888f19350505050158015613008573d6000803e3d6000fd5b506000600e600085815260200190815260200160002060040160146101000a81548160ff021916908315150217905550505050565b6000600d60009054906101000a900473ffffffffffffffffffffffffffffffffffffffff16905090565b6000600d60009054906101000a900473ffffffffffffffffffffffffffffffffffffffff1673ffffffffffffffffffffffffffffffffffffffff166130aa61493d565b73ffffffffffffffffffffffffffffffffffffffff1614905090565b6060600a8054600181600116156101000203166002900480601f01602080910402602001604051908101604052809291908181526020018280546001816001161561010002031660029004801561315e5780601f106131335761010080835404028352916020019161315e565b820191906000526020600020905b81548152906001019060200180831161314157829003601f168201915b5050505050905090565b600d60149054906101000a900460ff1615806131b6575061318761303d565b73ffffffffffffffffffffffffffffffffffffffff163373ffffffffffffffffffffffffffffffffffffffff16145b6131bf57600080fd5b806131c9816128b2565b73ffffffffffffffffffffffffffffffffffffffff163373ffffffffffffffffffffffffffffffffffffffff1614613269576040517f08c379a00000000000000000000000000000000000000000000000000000000081526004018080602001828103825260158152602001807f796f75206d75737420626520746865206f776e6572000000000000000000000081525060200191505060405180910390fd5b613274338484614a39565b505050565b6000806000806000806060600e600089815260200190815260200160002060000154600e60008a815260200190815260200160002060010154600e60008b815260200190815260200160002060020154600e60008c815260200190815260200160002060030154600e60008d815260200190815260200160002060040160009054906101000a900473ffffffffffffffffffffffffffffffffffffffff16600e60008e815260200190815260200160002060040160149054906101000a900460ff16600e60008f8152602001908152602001600020600501808054600181600116156101000203166002900480601f0160208091040260200160405190810160405280929190818152602001828054600181600116156101000203166002900480156133e65780601f106133bb576101008083540402835291602001916133e6565b820191906000526020600020905b8154815290600101906020018083116133c957829003601f168201915b505050505090509650965096509650965096509650919395979092949650565b61340e61493d565b73ffffffffffffffffffffffffffffffffffffffff168273ffffffffffffffffffffffffffffffffffffffff1614156134af576040517f08c379a00000000000000000000000000000000000000000000000000000000081526004018080602001828103825260198152602001807f4552433732313a20617070726f766520746f2063616c6c65720000000000000081525060200191505060405180910390fd5b80600460006134bc61493d565b73ffffffffffffffffffffffffffffffffffffffff1673ffffffffffffffffffffffffffffffffffffffff16815260200190815260200160002060008473ffffffffffffffffffffffffffffffffffffffff1673ffffffffffffffffffffffffffffffffffffffff16815260200190815260200160002060006101000a81548160ff0219169083151502179055508173ffffffffffffffffffffffffffffffffffffffff1661356961493d565b73ffffffffffffffffffffffffffffffffffffffff167f17307eab39ab6107e8899845ad3d59bd9653f200f220920489ca2b5937696c3183604051808215151515815260200191505060405180910390a35050565b6135cf6135c961493d565b83614945565b613624576040517f08c379a0000000000000000000000000000000000000000000000000000000008152600401808060200182810382526031815260200180615e4b6031913960400191505060405180910390fd5b61363084848484614a75565b50505050565b81600e600082815260200190815260200160002060040160009054906101000a900473ffffffffffffffffffffffffffffffffffffffff1673ffffffffffffffffffffffffffffffffffffffff163373ffffffffffffffffffffffffffffffffffffffff161480156136db57506136ac816128b2565b73ffffffffffffffffffffffffffffffffffffffff163373ffffffffffffffffffffffffffffffffffffffff16145b6136e457600080fd5b81600e600085815260200190815260200160002060020181905550505050565b6000600f60003373ffffffffffffffffffffffffffffffffffffffff1673ffffffffffffffffffffffffffffffffffffffff16815260200190815260200160002060000154146137bc576040517f08c379a00000000000000000000000000000000000000000000000000000000081526004018080602001828103825260168152602001807f4475706c696361746573206e6f7420616c6c6f7765640000000000000000000081525060200191505060405180910390fd5b600d60149054906101000a900460ff16158061380a57506137db61303d565b73ffffffffffffffffffffffffffffffffffffffff163373ffffffffffffffffffffffffffffffffffffffff16145b61381357600080fd5b61381b615a13565b6040518060c001604052804281526020018a8a8080601f016020809104026020016040519081016040528093929190818152602001838380828437600081840152601f19601f82011690508083019250505050505050815260200188888080601f016020809104026020016040519081016040528093929190818152602001838380828437600081840152601f19601f82011690508083019250505050505050815260200186868080601f016020809104026020016040519081016040528093929190818152602001838380828437600081840152601f19601f82011690508083019250505050505050815260200160011515815260200184848080601f016020809104026020016040519081016040528093929190818152602001838380828437600081840152601f19601f82011690508083019250505050505050815250905080600f60003373ffffffffffffffffffffffffffffffffffffffff1673ffffffffffffffffffffffffffffffffffffffff1681526020019081526020016000206000820151816000015560208201518160010190805190602001906139c3929190615a4b565b5060408201518160020190805190602001906139e0929190615a4b565b5060608201518160030190805190602001906139fd929190615a4b565b5060808201518160040160006101000a81548160ff02191690831515021790555060a0820151816005019080519060200190613a3a929190615a4b565b5090505060123390806001815401808255809150509060018203906000526020600020016000909192909190916101000a81548173ffffffffffffffffffffffffffffffffffffffff021916908373ffffffffffffffffffffffffffffffffffffffff16021790555050505050505050505050565b6060613aba826148cb565b613b0f576040517f08c379a000000000000000000000000000000000000000000000000000000000815260040180806020018281038252602f815260200180615dfb602f913960400191505060405180910390fd5b6060600c60008481526020019081526020016000208054600181600116156101000203166002900480601f016020809104026020016040519081016040528092919081815260200182805460018160011615610100020316600290048015613bb85780601f10613b8d57610100808354040283529160200191613bb8565b820191906000526020600020905b815481529060010190602001808311613b9b57829003601f168201915b50505050509050600081511415613be15760405180602001604052806000815250915050613cac565b600b816040516020018083805460018160011615610100020316600290048015613c425780601f10613c20576101008083540402835291820191613c42565b820191906000526020600020905b815481529060010190602001808311613c2e575b505082805190602001908083835b60208310613c735780518252602082019150602081019050602083039250613c50565b6001836020036101000a038019825116818451168082178552505050505050905001925050506040516020818303038152906040529150505b919050565b60606000613cbd6121b2565b90506000811415613d01576000604051908082528060200260200182016040528015613cf85781602001602082028038833980820191505090505b50915050613e49565b606060118585604051808383808284378083019250505092505050908152602001604051809103902054604051908082528060200260200182016040528015613d595781602001602082028038833980820191505090505b50905060008090506000600190505b838111613e4157600e60008281526020019081526020016000206005016040518082805460018160011615610100020316600290048015613de05780601f10613dbe576101008083540402835291820191613de0565b820191906000526020600020905b815481529060010190602001808311613dcc575b50509150506040518091039020878760405180838380828437808301925050509250505060405180910390201415613e345780838381518110613e1f57fe5b60200260200101818152505081806001019250505b8080600101915050613d68565b829450505050505b92915050565b6000600460008473ffffffffffffffffffffffffffffffffffffffff1673ffffffffffffffffffffffffffffffffffffffff16815260200190815260200160002060008373ffffffffffffffffffffffffffffffffffffffff1673ffffffffffffffffffffffffffffffffffffffff16815260200190815260200160002060009054906101000a900460ff16905092915050565b81613eed816128b2565b73ffffffffffffffffffffffffffffffffffffffff163373ffffffffffffffffffffffffffffffffffffffff1614613f8d576040517f08c379a00000000000000000000000000000000000000000000000000000000081526004018080602001828103825260158152602001807f796f75206d75737420626520746865206f776e6572000000000000000000000081525060200191505060405180910390fd5b81600e600085815260200190815260200160002060040160146101000a81548160ff021916908315150217905550505050565b600d60149054906101000a900460ff16158061400e5750613fdf61303d565b73ffffffffffffffffffffffffffffffffffffffff163373ffffffffffffffffffffffffffffffffffffffff16145b61401757600080fd5b80600e600082815260200190815260200160002060040160009054906101000a900473ffffffffffffffffffffffffffffffffffffffff1673ffffffffffffffffffffffffffffffffffffffff163373ffffffffffffffffffffffffffffffffffffffff161461408657600080fd5b600e6000838152602001908152602001600020600201544211614111576040517f08c379a000000000000000000000000000000000000000000000000000000000815260040180806020018281038252601d8152602001807f596f75206e65656420746f20776169742074686520646561646c696e6500000081525060200191505060405180910390fd5b600061411c836128b2565b9050614129813385614a39565b50505050565b614137613067565b6141a9576040517f08c379a00000000000000000000000000000000000000000000000000000000081526004018080602001828103825260208152602001807f4f776e61626c653a2063616c6c6572206973206e6f7420746865206f776e657281525060200191505060405180910390fd5b6141b281614ae7565b50565b60011515600f60003373ffffffffffffffffffffffffffffffffffffffff1673ffffffffffffffffffffffffffffffffffffffff16815260200190815260200160002060040160009054906101000a900460ff1615151461427e576040517f08c379a000000000000000000000000000000000000000000000000000000000815260040180806020018281038252600b8152602001807f6e6f7420616c6c6f77656400000000000000000000000000000000000000000081525060200191505060405180910390fd5b600d60149054906101000a900460ff1615806142cc575061429d61303d565b73ffffffffffffffffffffffffffffffffffffffff163373ffffffffffffffffffffffffffffffffffffffff16145b6142d557600080fd5b6142dd615acb565b6040518060e001604052808a81526020018981526020018881526020014281526020013373ffffffffffffffffffffffffffffffffffffffff16815260200160011515815260200184848080601f016020809104026020016040519081016040528093929190818152602001838380828437600081840152601f19601f82011690508083019250505050505050815250905080600e60008881526020019081526020016000206000820151816000015560208201518160010155604082015181600201556060820151816003015560808201518160040160006101000a81548173ffffffffffffffffffffffffffffffffffffffff021916908373ffffffffffffffffffffffffffffffffffffffff16021790555060a08201518160040160146101000a81548160ff02191690831515021790555060c082015181600501908051906020019061442e929190615a4b565b5090505061443c3387614c2d565b61448a8686868080601f016020809104026020016040519081016040528093929190818152602001838380828437600081840152601f19601f82011690508083019250505050505050614c4b565b60118383604051808383808284378083019250505092505050908152602001604051809103902060008154809291906001019190505550601060003373ffffffffffffffffffffffffffffffffffffffff1673ffffffffffffffffffffffffffffffffffffffff16815260200190815260200160002060008154809291906001019190505550505050505050505050565b600e6020528060005260406000206000915090508060000154908060010154908060020154908060030154908060040160009054906101000a900473ffffffffffffffffffffffffffffffffffffffff16908060040160149054906101000a900460ff1690806005018054600181600116156101000203166002900480601f0160208091040260200160405190810160405280929190818152602001828054600181600116156101000203166002900480156146185780601f106145ed57610100808354040283529160200191614618565b820191906000526020600020905b8154815290600101906020018083116145fb57829003601f168201915b5050505050905087565b600f602052806000526040600020600091509050806000015490806001018054600181600116156101000203166002900480601f0160208091040260200160405190810160405280929190818152602001828054600181600116156101000203166002900480156146d45780601f106146a9576101008083540402835291602001916146d4565b820191906000526020600020905b8154815290600101906020018083116146b757829003601f168201915b505050505090806002018054600181600116156101000203166002900480601f0160208091040260200160405190810160405280929190818152602001828054600181600116156101000203166002900480156147725780601f1061474757610100808354040283529160200191614772565b820191906000526020600020905b81548152906001019060200180831161475557829003601f168201915b505050505090806003018054600181600116156101000203166002900480601f0160208091040260200160405190810160405280929190818152602001828054600181600116156101000203166002900480156148105780601f106147e557610100808354040283529160200191614810565b820191906000526020600020905b8154815290600101906020018083116147f357829003601f168201915b5050505050908060040160009054906101000a900460ff1690806005018054600181600116156101000203166002900480601f0160208091040260200160405190810160405280929190818152602001828054600181600116156101000203166002900480156148c15780601f10614896576101008083540402835291602001916148c1565b820191906000526020600020905b8154815290600101906020018083116148a457829003601f168201915b5050505050905086565b6000806001600084815260200190815260200160002060009054906101000a900473ffffffffffffffffffffffffffffffffffffffff169050600073ffffffffffffffffffffffffffffffffffffffff168173ffffffffffffffffffffffffffffffffffffffff161415915050919050565b600033905090565b6000614950826148cb565b6149a5576040517f08c379a000000000000000000000000000000000000000000000000000000000815260040180806020018281038252602c815260200180615cc3602c913960400191505060405180910390fd5b60006149b0836128b2565b90508073ffffffffffffffffffffffffffffffffffffffff168473ffffffffffffffffffffffffffffffffffffffff161480614a1f57508373ffffffffffffffffffffffffffffffffffffffff16614a0784611b05565b73ffffffffffffffffffffffffffffffffffffffff16145b80614a305750614a2f8185613e4f565b5b91505092915050565b614a44838383614cd5565b614a4e8382614f30565b614a5882826150ce565b505050565b600081600001549050919050565b6000819050919050565b614a80848484614a39565b614a8c84848484615195565b614ae1576040517f08c379a0000000000000000000000000000000000000000000000000000000008152600401808060200182810382526032815260200180615c1d6032913960400191505060405180910390fd5b50505050565b600073ffffffffffffffffffffffffffffffffffffffff168173ffffffffffffffffffffffffffffffffffffffff161415614b6d576040517f08c379a0000000000000000000000000000000000000000000000000000000008152600401808060200182810382526026815260200180615c4f6026913960400191505060405180910390fd5b8073ffffffffffffffffffffffffffffffffffffffff16600d60009054906101000a900473ffffffffffffffffffffffffffffffffffffffff1673ffffffffffffffffffffffffffffffffffffffff167f8be0079c531659141344cd1fd0a4f28419497f9722a3daafe3b4186f6b6457e060405160405180910390a380600d60006101000a81548173ffffffffffffffffffffffffffffffffffffffff021916908373ffffffffffffffffffffffffffffffffffffffff16021790555050565b614c478282604051806020016040528060008152506154d1565b5050565b614c54826148cb565b614ca9576040517f08c379a000000000000000000000000000000000000000000000000000000000815260040180806020018281038252602c815260200180615da6602c913960400191505060405180910390fd5b80600c60008481526020019081526020016000209080519060200190614cd0929190615b20565b505050565b8273ffffffffffffffffffffffffffffffffffffffff16614cf5826128b2565b73ffffffffffffffffffffffffffffffffffffffff1614614d61576040517f08c379a0000000000000000000000000000000000000000000000000000000008152600401808060200182810382526029815260200180615dd26029913960400191505060405180910390fd5b600073ffffffffffffffffffffffffffffffffffffffff168273ffffffffffffffffffffffffffffffffffffffff161415614de7576040517f08c379a0000000000000000000000000000000000000000000000000000000008152600401808060200182810382526024815260200180615c756024913960400191505060405180910390fd5b614df081615542565b614e37600360008573ffffffffffffffffffffffffffffffffffffffff1673ffffffffffffffffffffffffffffffffffffffff168152602001908152602001600020615600565b614e7e600360008473ffffffffffffffffffffffffffffffffffffffff1673ffffffffffffffffffffffffffffffffffffffff168152602001908152602001600020615623565b816001600083815260200190815260200160002060006101000a81548173ffffffffffffffffffffffffffffffffffffffff021916908373ffffffffffffffffffffffffffffffffffffffff160217905550808273ffffffffffffffffffffffffffffffffffffffff168473ffffffffffffffffffffffffffffffffffffffff167fddf252ad1be2c89b69c2b068fc378daa952ba7f163c4a11628f55a4df523b3ef60405160405180910390a4505050565b6000614f886001600560008673ffffffffffffffffffffffffffffffffffffffff1673ffffffffffffffffffffffffffffffffffffffff1681526020019081526020016000208054905061563990919063ffffffff16565b9050600060066000848152602001908152602001600020549050818114615075576000600560008673ffffffffffffffffffffffffffffffffffffffff1673ffffffffffffffffffffffffffffffffffffffff1681526020019081526020016000208381548110614ff557fe5b9060005260206000200154905080600560008773ffffffffffffffffffffffffffffffffffffffff1673ffffffffffffffffffffffffffffffffffffffff168152602001908152602001600020838154811061504d57fe5b9060005260206000200181905550816006600083815260200190815260200160002081905550505b600560008573ffffffffffffffffffffffffffffffffffffffff1673ffffffffffffffffffffffffffffffffffffffff1681526020019081526020016000208054809190600190036150c79190615ba0565b5050505050565b600560008373ffffffffffffffffffffffffffffffffffffffff1673ffffffffffffffffffffffffffffffffffffffff168152602001908152602001600020805490506006600083815260200190815260200160002081905550600560008373ffffffffffffffffffffffffffffffffffffffff1673ffffffffffffffffffffffffffffffffffffffff1681526020019081526020016000208190806001815401808255809150509060018203906000526020600020016000909192909190915055505050565b60006151b68473ffffffffffffffffffffffffffffffffffffffff16615683565b6151c357600190506154c9565b600060608573ffffffffffffffffffffffffffffffffffffffff168673ffffffffffffffffffffffffffffffffffffffff1663150b7a02905060e01b61520761493d565b898888604051602401808573ffffffffffffffffffffffffffffffffffffffff1673ffffffffffffffffffffffffffffffffffffffff1681526020018473ffffffffffffffffffffffffffffffffffffffff1673ffffffffffffffffffffffffffffffffffffffff16815260200183815260200180602001828103825283818151815260200191508051906020019080838360005b838110156152b757808201518184015260208101905061529c565b50505050905090810190601f1680156152e45780820380516001836020036101000a031916815260200191505b5095505050505050604051602081830303815290604052907bffffffffffffffffffffffffffffffffffffffffffffffffffffffff19166020820180517bffffffffffffffffffffffffffffffffffffffffffffffffffffffff83818316178352505050506040518082805190602001908083835b6020831061537c5780518252602082019150602081019050602083039250615359565b6001836020036101000a0380198251168184511680821785525050505050509050019150506000604051808303816000865af19150503d80600081146153de576040519150601f19603f3d011682016040523d82523d6000602084013e6153e3565b606091505b509150915081615451576000815111156154005780518082602001fd5b6040517f08c379a0000000000000000000000000000000000000000000000000000000008152600401808060200182810382526032815260200180615c1d6032913960400191505060405180910390fd5b600081806020019051602081101561546857600080fd5b8101908080519060200190929190505050905063150b7a0260e01b7bffffffffffffffffffffffffffffffffffffffffffffffffffffffff1916817bffffffffffffffffffffffffffffffffffffffffffffffffffffffff19161493505050505b949350505050565b6154db83836156ce565b6154e86000848484615195565b61553d576040517f08c379a0000000000000000000000000000000000000000000000000000000008152600401808060200182810382526032815260200180615c1d6032913960400191505060405180910390fd5b505050565b600073ffffffffffffffffffffffffffffffffffffffff166002600083815260200190815260200160002060009054906101000a900473ffffffffffffffffffffffffffffffffffffffff1673ffffffffffffffffffffffffffffffffffffffff16146155fd5760006002600083815260200190815260200160002060006101000a81548173ffffffffffffffffffffffffffffffffffffffff021916908373ffffffffffffffffffffffffffffffffffffffff1602179055505b50565b6156186001826000015461563990919063ffffffff16565b816000018190555050565b6001816000016000828254019250508190555050565b600061567b83836040518060400160405280601e81526020017f536166654d6174683a207375627472616374696f6e206f766572666c6f7700008152506156ef565b905092915050565b60008060007fc5d2460186f7233c927e7db2dcc703c0e500b653ca82273b7bfad8045d85a47060001b9050833f91508082141580156156c557506000801b8214155b92505050919050565b6156d882826157af565b6156e282826150ce565b6156eb816159c7565b5050565b600083831115829061579c576040517f08c379a00000000000000000000000000000000000000000000000000000000081526004018080602001828103825283818151815260200191508051906020019080838360005b83811015615761578082015181840152602081019050615746565b50505050905090810190601f16801561578e5780820380516001836020036101000a031916815260200191505b509250505060405180910390fd5b5060008385039050809150509392505050565b600073ffffffffffffffffffffffffffffffffffffffff168273ffffffffffffffffffffffffffffffffffffffff161415615852576040517f08c379a00000000000000000000000000000000000000000000000000000000081526004018080602001828103825260208152602001807f4552433732313a206d696e7420746f20746865207a65726f206164647265737381525060200191505060405180910390fd5b61585b816148cb565b156158ce576040517f08c379a000000000000000000000000000000000000000000000000000000000815260040180806020018281038252601c8152602001807f4552433732313a20746f6b656e20616c7265616479206d696e7465640000000081525060200191505060405180910390fd5b816001600083815260200190815260200160002060006101000a81548173ffffffffffffffffffffffffffffffffffffffff021916908373ffffffffffffffffffffffffffffffffffffffff160217905550615967600360008473ffffffffffffffffffffffffffffffffffffffff1673ffffffffffffffffffffffffffffffffffffffff168152602001908152602001600020615623565b808273ffffffffffffffffffffffffffffffffffffffff16600073ffffffffffffffffffffffffffffffffffffffff167fddf252ad1be2c89b69c2b068fc378daa952ba7f163c4a11628f55a4df523b3ef60405160405180910390a45050565b6007805490506008600083815260200190815260200160002081905550600781908060018154018082558091505090600182039060005260206000200160009091929091909150555050565b6040518060c0016040528060008152602001606081526020016060815260200160608152602001600015158152602001606081525090565b828054600181600116156101000203166002900490600052602060002090601f016020900481019282601f10615a8c57805160ff1916838001178555615aba565b82800160010185558215615aba579182015b82811115615ab9578251825591602001919060010190615a9e565b5b509050615ac79190615bcc565b5090565b6040518060e0016040528060008152602001600081526020016000815260200160008152602001600073ffffffffffffffffffffffffffffffffffffffff168152602001600015158152602001606081525090565b828054600181600116156101000203166002900490600052602060002090601f016020900481019282601f10615b6157805160ff1916838001178555615b8f565b82800160010185558215615b8f579182015b82811115615b8e578251825591602001919060010190615b73565b5b509050615b9c9190615bcc565b5090565b815481835581811115615bc757818360005260206000209182019101615bc69190615bcc565b5b505050565b615bee91905b80821115615bea576000816000905550600101615bd2565b5090565b9056fe455243373231456e756d657261626c653a206f776e657220696e646578206f7574206f6620626f756e64734552433732313a207472616e7366657220746f206e6f6e20455243373231526563656976657220696d706c656d656e7465724f776e61626c653a206e6577206f776e657220697320746865207a65726f20616464726573734552433732313a207472616e7366657220746f20746865207a65726f2061646472657373596f75206e65656420746f2073656e642074686520657861637420616d6f756e74206f662045746865724552433732313a206f70657261746f7220717565727920666f72206e6f6e6578697374656e7420746f6b656e4552433732313a20617070726f76652063616c6c6572206973206e6f74206f776e6572206e6f7220617070726f76656420666f7220616c6c4552433732313a2062616c616e636520717565727920666f7220746865207a65726f20616464726573734552433732313a206f776e657220717565727920666f72206e6f6e6578697374656e7420746f6b656e4552433732313a20617070726f76656420717565727920666f72206e6f6e6578697374656e7420746f6b656e4552433732314d657461646174613a2055524920736574206f66206e6f6e6578697374656e7420746f6b656e4552433732313a207472616e73666572206f6620746f6b656e2074686174206973206e6f74206f776e4552433732314d657461646174613a2055524920717565727920666f72206e6f6e6578697374656e7420746f6b656e4552433732313a20617070726f76616c20746f2063757272656e74206f776e65724552433732313a207472616e736665722063616c6c6572206973206e6f74206f776e6572206e6f7220617070726f766564455243373231456e756d657261626c653a20676c6f62616c20696e646578206f7574206f6620626f756e6473a265627a7a723158203640d21c5e728dba41115bfd3e9e711241cfd6df27f795479c7c33602783780d64736f6c63430005100032",
  "source": "pragma solidity ^0.5.0;\n\nimport \"@openzeppelin/contracts/token/ERC721/ERC721Full.sol\";\nimport \"@openzeppelin/contracts/token/ERC721/ERC721Mintable.sol\";\n\nimport \"./Pausable.sol\";\n\ncontract Coupoken is ERC721Full, Pausable {\n    constructor() public ERC721Full(\"Coupoken\", \"CPK\") {}\n\n    mapping(uint256 => Coupon) public tokenIdToCouponInfo;\n    mapping(address => Merchant) public addressToMerchant;\n    mapping(address => uint256) private merchantTokensCounter;\n    mapping(string => uint256) private tokenCategoryCounter;\n\n    address[] public merchantList;\n\n    function getMerchantList() external view returns (address[] memory) {\n        return merchantList;\n    }\n\n    struct Merchant {\n        uint256 createdAt;\n        string name;\n        string category;\n        string websiteUrl;\n        bool enabled;\n        string merchantURI;\n    }\n\n    struct Coupon {\n        uint256 discountSize;\n        uint256 price;\n        uint256 deadline;\n        uint256 createdAt;\n        address merchantAdr;\n        bool tradable;\n        string category;\n    }\n\n    modifier isCouponMerchantOwner(uint256 _tokenId) {\n        require(\n            msg.sender == tokenIdToCouponInfo[_tokenId].merchantAdr &&\n                msg.sender == ownerOf(_tokenId)\n        );\n        _;\n    }\n\n    modifier isCouponMerchant(uint256 _tokenId) {\n        require(msg.sender == tokenIdToCouponInfo[_tokenId].merchantAdr);\n        _;\n    }\n\n    modifier isCouponTradable(uint256 _tokenId) {\n        require(tokenIdToCouponInfo[_tokenId].tradable == true, \"token locked\");\n        _;\n    }\n\n    modifier isCouponOwner(uint256 _tokenId) {\n        require(msg.sender == ownerOf(_tokenId), \"you must be the owner\");\n        _;\n    }\n\n    modifier isMerchantExistent() {\n        require(\n            addressToMerchant[msg.sender].createdAt == 0,\n            \"Duplicates not allowed\"\n        );\n        _;\n    }\n\n    modifier isMerchantEnabled() {\n        require(addressToMerchant[msg.sender].enabled == true, \"not allowed\");\n        _;\n    }\n\n    function createMerchant(\n        string calldata _name,\n        string calldata _category,\n        string calldata _websiteUrl,\n        string calldata _merchantURI\n    ) external isMerchantExistent whenNotPaused {\n        Merchant memory newMerchant = Merchant(\n            now,\n            _name,\n            _category,\n            _websiteUrl,\n            true,\n            _merchantURI\n        );\n        addressToMerchant[msg.sender] = newMerchant;\n        merchantList.push(msg.sender);\n    }\n\n    function createCoupon(\n        uint256 _discountSize,\n        uint256 _price,\n        uint256 _deadline,\n        uint256 _tokenId,\n        string calldata _tokenURI,\n        string calldata _category\n    ) external isMerchantEnabled whenNotPaused {\n        Coupon memory newCoupon = Coupon(\n            _discountSize,\n            _price,\n            _deadline,\n            now,\n            msg.sender,\n            true,\n            _category\n        );\n        tokenIdToCouponInfo[_tokenId] = newCoupon;\n        _safeMint(msg.sender, _tokenId);\n        _setTokenURI(_tokenId, _tokenURI);\n        tokenCategoryCounter[_category]++;\n        merchantTokensCounter[msg.sender]++;\n    }\n\n    function transferCoupon(address _target, uint256 _tokenId)\n        public\n        whenNotPaused\n        isCouponOwner(_tokenId)\n    {\n        _transferFrom(msg.sender, _target, _tokenId);\n    }\n\n    function toggleLockCoupon(uint256 _tokenId, bool _tradable)\n        external\n        isCouponOwner(_tokenId)\n    {\n        tokenIdToCouponInfo[_tokenId].tradable = _tradable;\n    }\n\n    function setPriceCoupon(uint256 _tokenId, uint256 _price)\n        external\n        isCouponOwner(_tokenId)\n    {\n        tokenIdToCouponInfo[_tokenId].price = _price;\n    }\n\n    function setDeadlineCoupon(uint256 _tokenId, uint256 _deadline)\n        external\n        isCouponMerchantOwner(_tokenId)\n    {\n        tokenIdToCouponInfo[_tokenId].deadline = _deadline;\n    }\n\n    function claimBackCoupon(address _target, uint256 _tokenId)\n        external\n        whenNotPaused\n        isCouponMerchant(_tokenId)\n    {\n        require(\n            now > tokenIdToCouponInfo[_tokenId].deadline,\n            \"You need to wait the deadline\"\n        );\n        address ownerAddress = ownerOf(_tokenId);\n        _transferFrom(ownerAddress, msg.sender, _tokenId);\n    }\n\n    function getCouponInfo(uint256 _tokenId)\n        external\n        view\n        returns (\n            uint256 discountSize,\n            uint256 price,\n            uint256 deadline,\n            uint256 createdAt,\n            address merchantAdr,\n            bool tradable,\n            string memory _category\n        )\n    {\n        return (\n            tokenIdToCouponInfo[_tokenId].discountSize,\n            tokenIdToCouponInfo[_tokenId].price,\n            tokenIdToCouponInfo[_tokenId].deadline,\n            tokenIdToCouponInfo[_tokenId].createdAt,\n            tokenIdToCouponInfo[_tokenId].merchantAdr,\n            tokenIdToCouponInfo[_tokenId].tradable,\n            tokenIdToCouponInfo[_tokenId].category\n        );\n    }\n\n    function getMerchantInfo(address _merchantAdr)\n        external\n        view\n        returns (\n            uint256 createdAt,\n            string memory merchantName,\n            string memory category,\n            string memory websiteUrl,\n            bool enabled,\n            string memory merchantURI\n        )\n    {\n        return (\n            addressToMerchant[_merchantAdr].createdAt,\n            addressToMerchant[_merchantAdr].name,\n            addressToMerchant[_merchantAdr].category,\n            addressToMerchant[_merchantAdr].websiteUrl,\n            addressToMerchant[_merchantAdr].enabled,\n            addressToMerchant[_merchantAdr].merchantURI\n        );\n    }\n\n    function _make_payable(address x) internal pure returns (address payable) {\n        return address(uint160(x));\n    }\n\n    function buyCoupon(uint256 _tokenId) external payable {\n        address ownerAddress = ownerOf(_tokenId);\n        require(tokenIdToCouponInfo[_tokenId].tradable, \"Tradable not enabled\");\n        require(\n            msg.value == tokenIdToCouponInfo[_tokenId].price,\n            \"You need to send the exact amount of Ether\"\n        );\n        _transferFrom(ownerAddress, msg.sender, _tokenId);\n        address payable ownerAddressPayable = _make_payable(ownerAddress);\n        ownerAddressPayable.transfer(tokenIdToCouponInfo[_tokenId].price);\n        tokenIdToCouponInfo[_tokenId].tradable = false;\n    }\n\n    function tokensOfOwner(address _owner)\n        external\n        view\n        returns (uint256[] memory ownerTokens)\n    {\n        uint256 tokenCount = balanceOf(_owner);\n\n        if (tokenCount == 0) {\n            return new uint256[](0);\n        } else {\n            uint256[] memory result = new uint256[](tokenCount);\n            uint256 totalCoupons = totalSupply();\n            uint256 resultIndex = 0;\n            uint256 couponId;\n\n            for (couponId = 1; couponId <= totalCoupons; couponId++) {\n                if (ownerOf(couponId) == _owner) {\n                    result[resultIndex] = couponId;\n                    resultIndex++;\n                }\n            }\n\n            return result;\n        }\n    }\n\n    function tokensOfCategory(string calldata _category)\n        external\n        view\n        returns (uint256[] memory ownerTokens)\n    {\n        uint256 totalCoupons = totalSupply();\n        if (totalCoupons == 0) {\n            return new uint256[](0);\n        } else {\n            uint256[] memory result = new uint256[](\n                tokenCategoryCounter[_category]\n            );\n            uint256 resultIndex = 0;\n            uint256 couponId;\n\n            for (couponId = 1; couponId <= totalCoupons; couponId++) {\n                if (\n                    keccak256(bytes(_category)) ==\n                    keccak256(bytes(tokenIdToCouponInfo[couponId].category))\n                ) {\n                    result[resultIndex] = couponId;\n                    resultIndex++;\n                }\n            }\n            return result;\n        }\n    }\n\n    function tokensOfMerchant(address _merchant)\n        external\n        view\n        returns (uint256[] memory merchantTokens)\n    {\n        uint256 tokenCount = balanceOf(_merchant);\n\n        if (tokenCount == 0) {\n            return new uint256[](0);\n        } else {\n            uint256[] memory result = new uint256[](\n                merchantTokensCounter[_merchant]\n            );\n            uint256 totalCoupons = totalSupply();\n            uint256 resultIndex = 0;\n            uint256 couponId;\n\n            for (couponId = 1; couponId <= totalCoupons; couponId++) {\n                if (tokenIdToCouponInfo[couponId].merchantAdr == _merchant) {\n                    result[resultIndex] = couponId;\n                    resultIndex++;\n                }\n            }\n\n            return result;\n        }\n    }\n}\n",
  "sourcePath": "/media/dev/a1f3111b-cf3b-4b8d-8080-52d4b51c231e6/dev//hackathons/DEFI/Coupoken/contracts/EncryptNft.sol",
  "compiler": {
    "name": "solc",
    "version": "0.5.16+commit.9c3226ce.Emscripten.clang"
  },
  "schemaVersion": "3.4.0",
  "updatedAt": "2021-08-03T10:08:03.992Z",
  "networkType": "ethereum",
  "devdoc": {
    "methods": {
      "approve(address,uint256)": {
        "details": "Approves another address to transfer the given token ID The zero address indicates there is no approved address. There can only be one approved address per token at a given time. Can only be called by the token owner or an approved operator.",
        "params": {
          "to": "address to be approved for the given token ID",
          "tokenId": "uint256 ID of the token to be approved"
        }
      },
      "balanceOf(address)": {
        "details": "Gets the balance of the specified address.",
        "params": {
          "owner": "address to query the balance of"
        },
        "return": "uint256 representing the amount owned by the passed address"
      },
      "baseURI()": {
        "details": "Returns the base URI set via {_setBaseURI}. This will be automatically added as a preffix in {tokenURI} to each token's URI, when they are non-empty.    * _Available since v2.5.0._"
      },
      "getApproved(uint256)": {
        "details": "Gets the approved address for a token ID, or zero if no address set Reverts if the token ID does not exist.",
        "params": {
          "tokenId": "uint256 ID of the token to query the approval of"
        },
        "return": "address currently approved for the given token ID"
      },
      "isApprovedForAll(address,address)": {
        "details": "Tells whether an operator is approved by a given owner.",
        "params": {
          "operator": "operator address which you want to query the approval of",
          "owner": "owner address which you want to query the approval of"
        },
        "return": "bool whether the given operator is approved by the given owner"
      },
      "isOwner()": {
        "details": "Returns true if the caller is the current owner."
      },
      "name()": {
        "details": "Gets the token name.",
        "return": "string representing the token name"
      },
      "notPausable()": {
        "details": "Prevent the token from ever being paused again*"
      },
      "owner()": {
        "details": "Returns the address of the current owner."
      },
      "ownerOf(uint256)": {
        "details": "Gets the owner of the specified token ID.",
        "params": {
          "tokenId": "uint256 ID of the token to query the owner of"
        },
        "return": "address currently marked as the owner of the given token ID"
      },
      "pause()": {
        "details": "called by the owner to pause, triggers stopped state*"
      },
      "renounceOwnership()": {
        "details": "Leaves the contract without owner. It will not be possible to call `onlyOwner` functions anymore. Can only be called by the current owner.     * NOTE: Renouncing ownership will leave the contract without an owner, thereby removing any functionality that is only available to the owner."
      },
      "safeTransferFrom(address,address,uint256)": {
        "details": "Safely transfers the ownership of a given token ID to another address If the target address is a contract, it must implement {IERC721Receiver-onERC721Received}, which is called upon a safe transfer, and return the magic value `bytes4(keccak256(\"onERC721Received(address,address,uint256,bytes)\"))`; otherwise, the transfer is reverted. Requires the msg.sender to be the owner, approved, or operator",
        "params": {
          "from": "current owner of the token",
          "to": "address to receive the ownership of the given token ID",
          "tokenId": "uint256 ID of the token to be transferred"
        }
      },
      "safeTransferFrom(address,address,uint256,bytes)": {
        "details": "Safely transfers the ownership of a given token ID to another address If the target address is a contract, it must implement {IERC721Receiver-onERC721Received}, which is called upon a safe transfer, and return the magic value `bytes4(keccak256(\"onERC721Received(address,address,uint256,bytes)\"))`; otherwise, the transfer is reverted. Requires the _msgSender() to be the owner, approved, or operator",
        "params": {
          "_data": "bytes data to send along with a safe transfer check",
          "from": "current owner of the token",
          "to": "address to receive the ownership of the given token ID",
          "tokenId": "uint256 ID of the token to be transferred"
        }
      },
      "setApprovalForAll(address,bool)": {
        "details": "Sets or unsets the approval of a given operator An operator is allowed to transfer all tokens of the sender on their behalf.",
        "params": {
          "approved": "representing the status of the approval to be set",
          "to": "operator address to set the approval"
        }
      },
      "supportsInterface(bytes4)": {
        "details": "See {IERC165-supportsInterface}.     * Time complexity O(1), guaranteed to always use less than 30 000 gas."
      },
      "symbol()": {
        "details": "Gets the token symbol.",
        "return": "string representing the token symbol"
      },
      "tokenByIndex(uint256)": {
        "details": "Gets the token ID at a given index of all the tokens in this contract Reverts if the index is greater or equal to the total number of tokens.",
        "params": {
          "index": "uint256 representing the index to be accessed of the tokens list"
        },
        "return": "uint256 token ID at the given index of the tokens list"
      },
      "tokenOfOwnerByIndex(address,uint256)": {
        "details": "Gets the token ID at a given index of the tokens list of the requested owner.",
        "params": {
          "index": "uint256 representing the index to be accessed of the requested tokens list",
          "owner": "address owning the tokens list to be accessed"
        },
        "return": "uint256 token ID at the given index of the tokens list owned by the requested address"
      },
      "tokenURI(uint256)": {
        "details": "Returns the URI for a given token ID. May return an empty string.     * If the token's URI is non-empty and a base URI was set (via {_setBaseURI}), it will be added to the token ID's URI as a prefix.     * Reverts if the token ID does not exist."
      },
      "totalSupply()": {
        "details": "Gets the total amount of tokens stored by the contract.",
        "return": "uint256 representing the total amount of tokens"
      },
      "transferFrom(address,address,uint256)": {
        "details": "Transfers the ownership of a given token ID to another address. Usage of this method is discouraged, use {safeTransferFrom} whenever possible. Requires the msg.sender to be the owner, approved, or operator.",
        "params": {
          "from": "current owner of the token",
          "to": "address to receive the ownership of the given token ID",
          "tokenId": "uint256 ID of the token to be transferred"
        }
      },
      "transferOwnership(address)": {
        "details": "Transfers ownership of the contract to a new account (`newOwner`). Can only be called by the current owner."
      },
      "unpause()": {
        "details": "called by the owner to unpause, returns to normal state"
      }
    }
  },
  "userdoc": {
    "methods": {}
  }
}